{
  "transactions": [
    {
      "hash": "0x7e7a07fc04ed05fe7ae6a0830ce7d40ba79d349829ebd59c2cd5a14b0e7f51bb",
      "transactionType": "CALL",
      "contractName": "Mash",
      "contractAddress": "0x92152D2A74a24CB581EB8d388e0488A87dD3585B",
      "function": "addCollection((address,uint16,uint16,uint8,uint8),string[])",
      "arguments": [
        "(0x2eE60e5cFe7827aFE0549fA1cA41289f3bEaa813, 1000, 0, 32, 32)",
        "[name, name, asd, adsf, ad]"
      ],
      "rpc": "https://eth-goerli.g.alchemy.com/v2/5UF2xlGozVlJ0yT1SEzW-HJfvTq7AGvs",
      "transaction": {
        "type": "0x02",
        "from": "0xef421d02f19ccbb7f22eeed2d2ee9584dcd2a8ff",
        "to": "0x92152d2a74a24cb581eb8d388e0488a87dd3585b",
        "gas": "0x41e7c",
        "value": "0x0",
        "data": "0xa0cfcf350000000000000000000000002ee60e5cfe7827afe0549fa1ca41289f3beaa81300000000000000000000000000000000000000000000000000000000000003e800000000000000000000000000000000000000000000000000000000000000000000000000000000000000000000000000000000000000000000000000000020000000000000000000000000000000000000000000000000000000000000002000000000000000000000000000000000000000000000000000000000000000c0000000000000000000000000000000000000000000000000000000000000000500000000000000000000000000000000000000000000000000000000000000a000000000000000000000000000000000000000000000000000000000000000e00000000000000000000000000000000000000000000000000000000000000120000000000000000000000000000000000000000000000000000000000000016000000000000000000000000000000000000000000000000000000000000001a000000000000000000000000000000000000000000000000000000000000000046e616d650000000000000000000000000000000000000000000000000000000000000000000000000000000000000000000000000000000000000000000000046e616d6500000000000000000000000000000000000000000000000000000000000000000000000000000000000000000000000000000000000000000000000361736400000000000000000000000000000000000000000000000000000000000000000000000000000000000000000000000000000000000000000000000004616473660000000000000000000000000000000000000000000000000000000000000000000000000000000000000000000000000000000000000000000000026164000000000000000000000000000000000000000000000000000000000000",
        "nonce": "0x27d",
        "accessList": []
      },
      "additionalContracts": []
    }
  ],
  "receipts": [],
  "libraries": [],
  "pending": [
    "0x7e7a07fc04ed05fe7ae6a0830ce7d40ba79d349829ebd59c2cd5a14b0e7f51bb"
  ],
  "path": "/Users/nope/NFTs/eth/indelible/collage/packages/contracts/broadcast/TestnetDeploy.s.sol/5/run-latest.json",
  "returns": {},
  "timestamp": 1673462098,
  "chain": 5,
  "multi": false,
  "commit": "4eb2759"
}