{
  "transactions": [
    {
      "hash": "0xa6314fa7855c807178858c73472b41b9d0520a195d0463be5dd61cb6f4709e0e",
      "transactionType": "CALL",
      "contractName": "Mash",
      "contractAddress": "0x92152D2A74a24CB581EB8d388e0488A87dD3585B",
      "function": "addCollection((address,uint16,uint16,uint8,uint8),string[])",
      "arguments": [
        "(0x2eE60e5cFe7827aFE0549fA1cA41289f3bEaa813, 1000, 0, 32, 32)",
        "[name, name, asd, adsf, ad]"
      ],
      "rpc": "https://eth-goerli.g.alchemy.com/v2/5UF2xlGozVlJ0yT1SEzW-HJfvTq7AGvs",
      "transaction": {
        "type": "0x02",
        "from": "0xef421d02f19ccbb7f22eeed2d2ee9584dcd2a8ff",
        "to": "0x92152d2a74a24cb581eb8d388e0488a87dd3585b",
        "gas": "0x41e7c",
        "value": "0x0",
        "data": "0xa0cfcf350000000000000000000000002ee60e5cfe7827afe0549fa1ca41289f3beaa81300000000000000000000000000000000000000000000000000000000000003e800000000000000000000000000000000000000000000000000000000000000000000000000000000000000000000000000000000000000000000000000000020000000000000000000000000000000000000000000000000000000000000002000000000000000000000000000000000000000000000000000000000000000c0000000000000000000000000000000000000000000000000000000000000000500000000000000000000000000000000000000000000000000000000000000a000000000000000000000000000000000000000000000000000000000000000e00000000000000000000000000000000000000000000000000000000000000120000000000000000000000000000000000000000000000000000000000000016000000000000000000000000000000000000000000000000000000000000001a000000000000000000000000000000000000000000000000000000000000000046e616d650000000000000000000000000000000000000000000000000000000000000000000000000000000000000000000000000000000000000000000000046e616d6500000000000000000000000000000000000000000000000000000000000000000000000000000000000000000000000000000000000000000000000361736400000000000000000000000000000000000000000000000000000000000000000000000000000000000000000000000000000000000000000000000004616473660000000000000000000000000000000000000000000000000000000000000000000000000000000000000000000000000000000000000000000000026164000000000000000000000000000000000000000000000000000000000000",
        "nonce": "0x27c",
        "accessList": []
      },
      "additionalContracts": []
    }
  ],
  "receipts": [
    {
      "transactionHash": "0xa6314fa7855c807178858c73472b41b9d0520a195d0463be5dd61cb6f4709e0e",
      "transactionIndex": "0x12",
      "blockHash": "0x29796af58e4aed092c6f564ea7fbea86a4a895f8c33d3e8b35888045c819e520",
      "blockNumber": "0x7e9065",
      "from": "0xeF421d02f19CCBb7f22EEEd2D2Ee9584DCD2a8FF",
      "to": "0x92152D2A74a24CB581EB8d388e0488A87dD3585B",
      "cumulativeGasUsed": "0x217c7e",
      "gasUsed": "0x2fb6f",
      "contractAddress": null,
      "logs": [
        {
          "address": "0x92152D2A74a24CB581EB8d388e0488A87dD3585B",
          "topics": [
            "0xbee0b7e907c247d44b95829b99daa1a1fe94150ddd0a468f8720395295cc2687",
            "0x0000000000000000000000000000000000000000000000000000000000000001",
            "0x0000000000000000000000002ee60e5cfe7827afe0549fa1ca41289f3beaa813"
          ],
          "data": "0x00000000000000000000000000000000000000000000000000000000000003e8",
          "blockHash": "0x29796af58e4aed092c6f564ea7fbea86a4a895f8c33d3e8b35888045c819e520",
          "blockNumber": "0x7e9065",
          "transactionHash": "0xa6314fa7855c807178858c73472b41b9d0520a195d0463be5dd61cb6f4709e0e",
          "transactionIndex": "0x12",
          "logIndex": "0x2c",
          "removed": false
        }
      ],
      "status": "0x1",
      "logsBloom": "0x00000000000000000000000000000000000000000000000000000000000000000000000000000000000000000000000000000000000000000000000000040000000000000000000000000000000000000000000000050000000000000000000000000000000000000000100000000000000000000000000000000000000000000000000000000000000000000000000000008000000000000000000000000000000000000004000000000001000000000000000002000000000000000000000000000000000000000000000000000000000000000000000000000000000040000000000000000000000000000000000040001000000000000000008000000000",
      "type": "0x2",
      "effectiveGasPrice": "0x30ca6a73f"
    }
  ],
  "libraries": [],
  "pending": [],
  "path": "/Users/nope/NFTs/eth/indelible/collage/packages/contracts/broadcast/TestnetDeploy.s.sol/5/run-latest.json",
  "returns": {},
  "timestamp": 1673461960,
  "chain": 5,
  "multi": false,
  "commit": "4eb2759"
}