{
  "transactions": [
    {
      "hash": "0xd6532e9a5dccda6fe624b515501196ed2d7fc1b49636793c51b5315a2d99a55e",
      "transactionType": "CALL",
      "contractName": "RenderV2",
      "contractAddress": "0x4Ad77332F4e3aDb6d6ca7c9e43c7e83DCC4DC08A",
      "function": "setMash(address)",
      "arguments": [
        "0x9AcFf3827d5adA3d946433eCf65e4568CC6ef50D"
      ],
      "rpc": "https://eth-mainnet.g.alchemy.com/v2/HDTL1ubfVBzCD2IkhXNdk-kDB0mteTCG",
      "transaction": {
        "type": "0x02",
        "from": "0xef421d02f19ccbb7f22eeed2d2ee9584dcd2a8ff",
        "to": "0x4ad77332f4e3adb6d6ca7c9e43c7e83dcc4dc08a",
        "gas": "0xf8a5",
        "value": "0x0",
        "data": "0x8a2768040000000000000000000000009acff3827d5ada3d946433ecf65e4568cc6ef50d",
        "nonce": "0x10",
        "accessList": []
      },
      "additionalContracts": []
    }
  ],
  "receipts": [
    {
      "transactionHash": "0xd6532e9a5dccda6fe624b515501196ed2d7fc1b49636793c51b5315a2d99a55e",
      "transactionIndex": "0x5",
      "blockHash": "0xc095884264ba5edf6b7cf4131694d6608f1cc7510d425ddece723c27707c30b2",
      "blockNumber": "0xfbd8c0",
      "from": "0xeF421d02f19CCBb7f22EEEd2D2Ee9584DCD2a8FF",
      "to": "0x4Ad77332F4e3aDb6d6ca7c9e43c7e83DCC4DC08A",
      "cumulativeGasUsed": "0x7d372",
      "gasUsed": "0xb404",
      "contractAddress": null,
      "logs": [],
      "status": "0x1",
      "logsBloom": "0x00000000000000000000000000000000000000000000000000000000000000000000000000000000000000000000000000000000000000000000000000000000000000000000000000000000000000000000000000000000000000000000000000000000000000000000000000000000000000000000000000000000000000000000000000000000000000000000000000000000000000000000000000000000000000000000000000000000000000000000000000000000000000000000000000000000000000000000000000000000000000000000000000000000000000000000000000000000000000000000000000000000000000000000000000000000",
      "type": "0x2",
      "effectiveGasPrice": "0x461f741fa"
    }
  ],
  "libraries": [],
  "pending": [],
  "path": "/Users/nope/NFTs/eth/indelible/collage/packages/contracts/broadcast/MainnetDeploy.s.sol/1/run-latest.json",
  "returns": {},
  "timestamp": 1674905379,
  "chain": 1,
  "multi": false,
  "commit": "b4510c8"
}